:104414003060006030007341516351413331517356
:10442400615143C003C000C002C00100000000008D
:104434000000000000000000000000D402D400D4FA
:0B44440001D403D500D501D503D5023B
:1027650042103B00014210170001421023000142B4
:102775001150000042114E0000421021000042108D
:102785003D000042102F000042101B0000421019AE
:1027950000005400008C8C088084C888C808C48850
:1027A5004C8C4C08888CCC88CC410014FF70000000
:1027B500170F387E305F0F34804C7FFE67E0023A9A
:1027C5005C0005103A05103A05E9687C0042441C96
:1027D500E47C806C648242869224A29286929282E4
:1027E500FE8A9244A29298929282029292FEA292BC
:1027F500A092927C00626C049C4CC06C7CFE665B73
:102805000B0C530C0C560B7C05107205550C1F5107
:10281500090CF811530805F3BD510B721FF7DE5D66
:1028250005FE66F811FE3FF0F2FAB362097A53032A
:102835000506100510710572FE7653036103040742
:1028450014700710FDFA04114C56030529100510E4
:102855007705570304020511040205F9E5FDFD5846
:10286500030D04B8A150030C771BB8895303721BE1
:1028750028610972D87D70FB07FCC527B0C577F7BD
:10288500A3F0D4E0C52780FE2A890398E650080CFA
:102895007A1BB8F279E0EE51080C7D1BB8F27CC0CA
:1028A500F17005600852007E05107C0572EB4D57EE
:1028B5000B731E2E50090C771D100C04360510C91C
:1028C500110C11600AF362D91F051171051170050C
:1028D500E07A510B7D1D5D05FE6659050D50050C11
:1028E500107505FAB3FAF67863050750097E09C92C
:1028F500457C09C5200EF811630C0602C95259051D
:102905000C450EF822F7F4530504815DF7F95108DB
:102915000424E165F00E2515B96352040C55087EB3
:102925001D5C036303FE73F822FE3FFE21FE9C6CD3
:1029350001FE1573FE760C111506B98F150CE1888D
:10294500FE21F874FE2CFE13CA2EF90D510B721FD1
:102955007AF7BC7DF7A9FD98F7F9F8085A007F1BAF
:10296500F96250006001FE176F030E6E0158057382
:1029750009B1CB680031B9CBE2FE6801E3895001AA
:102985006000FE1753007309C9A90D1177055A0098
:102995007F1E04B9F558057D1BB06E5305048E8E58
:1029A5009530FDA1E154580574092AB2193F2874E0
:1029B500DA235009046C079209165C042B060A10E9
:1029C50014A20CC219782024FE187ECA232A5F049B
:1029D50004BA197CF7BCE1A9FE13FEFA5B000CF9F9
:1029E5000D5905049244FCC55A097609CA305905A2
:1029F5000D660FF79350087F1B265305761AB255BF
:102A05008A557024E3892741052A0226700224E3AA
:102A1500895305048EC3956DFE21FE075B000CF8F6
:102A25007454046D02FE176001FE15FE2CCA27FEC4
:102A3500215F03049A8B781F6203E3891E73F7A94C
:102A45005501041EF7F9F9FA19DAD77BF7A9F7F951
:102A5500F9FA1929B2A9F968E29FF35A296401071D
:102A65007A24F9615200FE0C2515BAB1F9FAF96814
:102A7500F35EC2BBF96155010C1104BA9353050409
:102A850002CA93F0E67CE1A3F35EC295550104B357
:102A95002A70F7BC65010617245804F37065010612
:102AA50092FA2870262B0319DAF4245D04E30261F7
:102AB500005C04F370DB0D2BF0DC680CF793FAF681
:102AC5005F030481C9B318EC385305761AB1698ED2
:102AD500FF5C03FE09705A0005E4BD52047CF7EC67
:102AE500CB3474E35652030431B342116D00F362E3
:102AF50076CB5650016C0110061F111D1BBB5510DE
:102B05001425BB46E16978F7BCE1696A00E36067B3
:102B15000C50004600250BB3691810270AB36F182F
:102B25002E2A46012508360527247026102131BB9B
:102B350083CB7319214203BB732E5601250527103C
:102B4500055601FE60B3B2FCC5F3BD5F030483D631
:102B55005305048C1F945D278735B3C5F7A82797C0
:102B65005E9F655F03771AB2601E81CDEC3C570B03
:102B7500049BC32EFB0769050683D614065A09F77D
:102B8500ECCBD6150EFDA16D0506B3EA58097DF708
:102B9500ECCBEA0F530D7F1E510D1E5F030484011C
:102BA50053050483F88C08E4017AF7EACC015E0F3B
:102BB500781E570B049B96E3907DF7EACC1D5605CE
:102BC500721E048C19F9E471E41BF9E1F9D9E401E9
:102BD50027B3C54600942D18842D188C2D1829501F
:102BE50002094303BEC752036503042806052907E6
:102BF500152111BC396002F81906430328731B0718
:102C050014142505210B2905CBC51511E448270208
:102C1500846E8C9C94AB5F03048BC5CCBFEBA25236
:102C25000504B3C583C51104B3C50D79F7A9F7F438
:102C3500F9FA18DC8CF968F35EC47FE49A7524F917
:102C45006153007D1BB49A1525BC8EE3C5500379ED
:102C55001BB4BFF9E450030CF9F3E4B7500304B413
:102C6500BFF9E450030DF9F3C4F5F9E1F7A8FE79CE
:102C75005F03048BC5520504BBC5500604B3C57478
:102C8500F7EACBC5F9D9FE0766035003060BB4E492
:102C95000FC4E40E0E68030631BCEF500605E3C50C
:102CA500F9D8F858CBC57BF7A954017A0563040612
:102CB5008D0404F9E5F0F278F7EACD0454010C042B
:102CC500BCFCF86AB19B5304041EB9A574F7BCE5B6
:102CD5005FB68A7C07157B09B52E020EC52E0EF848
:102CE5006AFE64520504B53DF7F0F00EE55F580D38
:102CF5007FF814120D107305500C7905520C0D5DFB
:102D05000D77055F0D0554030D5C037A05107205FB
:102D1500F7F9F96174FE76500605F9E1E6A7100C9E
:102D2500106009064408287F4F04111BBA44055258
:102D35000504B618F7F4F9FA1829B5945200FE0CF3
:102D4500F96853040CF9FAF968F35EC59453040461
:102D5500BCF552050485BD5C050C610806430F31C1
:102D65002A021BBDB905F961E244F00EE2445002A6
:102D7500FE60BE023A4207BDB97405110C5006F853
:102D8500130D540679055806055C060D3A420728C9
:102D95004307BDE42856032905107405107105295C
:102DA500430F410928E60050062A04030510A5F93A
:102DB50019DDF6FE07510204B5B90D0450060000F1
:102DC500206C00FE17F968E2445C03FE60BE2550E6
:102DD5000604BE88E2D45403FE095703043FB63AFD
:102DE500F7F4F9FA1829B63A53040C6303460EFBB7
:102DF500A6F80850006200FE73520079FE00F9FA49
:102E0500F9FAF968F35EC64F530404BCF5F961F9A4
:102E1500E1600606BE8855030431B688117D09CEEA
:102E250088700E14073A28410ACE7B2866032907C5
:102E350014043F07147007F9D8E2447A07F86AFECC
:102E45006450027FF814FE7B5F0F0C117C05500364
:102E5500750553037305FACFF811530C0402CEC15F
:102E6500FCC55A09721BBEBB0C78F7A94304BEA961
:102E7500FDA1E24450020428296C0307F9E16C0323
:102E8500065003FDEE50037609C72F106301F36268
:102E9500CF2FF858CF0E28F8192326102124110416
:102EA5000715A6ED6C030605DF1CF9E16001E300DB
:102EB5005E020431BAD475F7A9F9E1FACFE6C1602B
:102EC500034603FBA6F9FAC72F4601E6E6F9E1F941
:102ED500DDF81904287F05530329FDEEF7A8E6C19F
:102EE50053047205E4F57AF7A9FE216A03570B042A
:102EF5008F430F0F0EFE9C5603781BBF546C01FECB
:102F050015F90AE767FE28C7916C01FE15E78DF9EB
:102F15000A56030CE76AF90A56030DF8746802FEAF
:102F250015FE2C580504CF87B783FE21FE9C6C0146
:102F3500FE15E78DFE21E78F58026404FE17FEFAA1
:102F4500F90DE3C55409700510A7965A0525051115
:102F55007E1D1127580505E7B170580505107F1B23
:102F650087BB530C7F1B87BB5805044B2E28BFC25C
:102F7500520405530C7F1B87DE6D0578077B5708C8
:102F85001A3010A7D112AFD12543022419DFCD7F06
:102F9500510D055F0C05530D70052E570909C7E73F
:102FA5002E670CE7FC7A6301E7FC706900500005A9
:102FB50010700525100510270555007A0557057968
:102FC500052E5409700510A0142E5F02100431B8A7
:102FD5001B112E52080C3A1E04284107C8322841FD
:102FE50007C02250050C60090602C844741BB8448A
:102FF50005294007283A6D035A03050711152905C8
:1030050007EE9C61035703E85C560360032A061B21
:10301500B8691014214309B85D2B2E50050D7F4D5D
:103025006E0B07ED985C027F0510A0765104714682
:10303500000566007407150756037909C89641050A
:10304500C094430F3F0714101004B0AB3111B8A35F
:10305500731AE8A87F1B42033166000767057007EE
:1030650067000756037909C8BF4103C0BF410C0774
:10307500D8CB750904C8C7705000E8D67309284134
:103085000A29C8D47952006603460FEBA96C025889
:10309500030431B8E911731B31245104043FB92AE3
:1030A5005B0004B0F91E56007105E9FA5C000407DF
:1030B5001456000D04B8F95104052E2AE90E2B64A7
:1030C500045C0206051014A112C9245C026C0106F9
:1030D5001F1014A11E51047228E8805B0004B13949
:1030E5001E5803043FB13956000C065C00057128D3
:1030F50057000426E94E5C000400D94D010105275F
:1031050017B9457226D968E8FB1456000D04B9397C
:10311500E906705C000510A1645B05741F28EA07C9
:103125005F00040205112191715300EA2A29C18328
:10313500430F1D701F52000D0431B98D100D540041
:103145000D04B96F57050481A552007A0905C9A177
:10315500100C4601E9AE89AC5A0004B9BC460255CB
:1031650000045200090510C9B90C19D9AE5800045C
:1031750024100426510404B5F93FB13E3FB1583F30
:10318500B3993FB1067005C2CF716603E9E76303E2
:10319500E9E771E9E57060035C000552004601EB63
:1031A500A874EB94600004071470075C007F055B4E
:1031B5000170055B057B1D28580025051027055561
:1031C5000004110529916F5100630506821FEA2A43
:1031D500510004BA2A11741B10B25871D5B70411E5
:1031E5004D2029440C22136705068A3C1229420CFE
:1031F5004601B24E430C189A4E4608B24E46046B31
:103205000506917C291A2AB25C2B5B010C5C000433
:10321500030510A25E50000C04BA6C100C54000D8E
:1032250004BA1657050482895000042855007A0B04
:10323500500005290905CA89100C570504B1BC922F
:10324500AD460F5B0104B29D18430ABA9D185A009A
:1032550004B1BC50007C0905107E0805E9BC5C0082
:103265000402E9BC70500C0510100546091010A2A7
:10327500C1127C1D19DABC700510A2C612AAC62E91
:1032850066033A28410ACAD8282907143A28071498
:103295007007294104C2EA3A42010766034602EB78
:1032A500A651047505E9FA6C042AEB346C07930002
:1032B50016530C741F2AEB38285D097E09C4F15A90
:1032C50009721BBDF9055605711E04026009DB284C
:1032D50006CAFB92FB6808EB33570B741ECAF60649
:1032E50092F668042B530C7B1D510C7A1D74CB4050
:1032F500711F510B731D52007C05107D0574285BF1
:10330500010558070605101421430CBB53298B6C86
:103315001104BB7A7A0519DB5F7005EB807920040F
:103325002A3605520D7B1DCB80741FC380510B744B
:103335001F775500056807063131287F5D004F115D
:103345000557057305510405E968145B010D04BBB8
:1033550086E9066003460050000605701005141442
:1033650006B3B731B3C97A0515062411EBC57A0939
:1033750005CBC5100C112515BBBD2931B0DC31B508
:10338500F9715500055705750529B3E23FB1F03FC1
:10339500B2F02E0D5000FDFAFDFDF9FAC3FBF35E08
:1033A500C3E75205048BFF74F7A9E4BD5000FE0C7A
:1033B50050006200FE735205048C750274F7A9CCA7
:1033C50059F852CE3B5801FC6A5002055C02F813CD
:1033D500F9246C06F793FE215006F813FE79640173
:1033E50007F9D95F037205E2FE6401E38964010E02
:1033F500068430F9D95703FE60B44EFE07EC30F869
:1034050058CC54E4F57EF7BCEC68F858CE3B510631
:10341500FC6A1105F9D979F7A9E4BD0C61080640E4
:10342500041BBC68052E5200FE0C116900F362C333
:10343500F97FF96275F7A950037F1B5200FE0D1144
:103445006000FE73500077FE0DF8085A000CF9FA7B
:10345500293FBE3D7F24F9615200FDFA2515BCA523
:10346500F7BCECB7F9FAF9685000FE60BCB3F96136
:103475006F02F793EE3D70D5B7600053097C09CD17
:10348500697005137F1B243305251C430FB4F5858F
:103495006A8D8AFD98500033430F94E410A4E61218
:1034A500ACE6373EE0611004263405271C430F289F
:1034B500420C5509BD0A0513771D12298513107095
:1034C50005137E1D530504B560761AB5348D60115C
:1034D500048D43560804007ACD2A7D1209CD437028
:1034E5000513711F26550804853F34430F8D430C82
:1034F50027440226550804017ACD4B7E1209CD607A
:10350500700513781F29955C274408ED5F2744044F
:1035150026540827430F1C430F262E530504BD715F
:10352500E121570B781E7B1D5F03721BBD8071F96E
:10353500D9FAF6F811FD93FDA1E3966000530C71DD
:103545001E04859F4A59057F057E57080530062EBE
:103555004507530C711B5F031C8598510B04010132
:10356500570B1C9D987FED992863090E140E064391
:1035750008BDDE07140E140E140E140E140E06BD2F
:10358500DE140E140E06BDDE140E06BDDE140E6628
:103595000106BDE91406B5EA0F150FDA2DECC8B61C
:1035A500053F10B5FF3FB609110D2E7AEE00510308
:1035B50071090510CE060C2E57037FEE0D76090511
:1035C50010CDF82E64045C0274280407101419DE6B
:1035D500192E5003660375EE186404EE2E6C012B4C
:1035E5005C02061ABE3A1014A6312A2EF961E2FED3
:1035F5005E02042811041005111104100511290596
:10360500680B040205060207141425BE5110A64FC7
:103615002E04101C2E5B04702829052111BE682379
:1036250013BE682E72EE1850030551037005100580
:103635002EE403E803E20306604C818C4100F1E4CB
:10364500434E40EA032E818E21026304415903044F
:103655002A036C0007147403075C0215060E281470
:1036650006154E100510A6AB11041E5A031D04289D
:10367500EEF76C005C0204020506030710A6C514EC
:1036850025BEC3590374095C006C0204071014A617
:10369500DAC6F6157007152596E35B00141004B617
:1036A500EC04071014A6F019DEC12E56036003EED4
:1036B50025FFBF7F3FFEBE7E3E9795FDBD7D3DFC50
:1036C500BC7C3CD7D5FBBB7B3BFABA7A3A5755F95C
:1036D500B97939F8B878381715F7B77737F6B67670
:1036E50036D6D4F5B57535F4B474345654F3B3738E
:1036F50033F2B272321614F1B17131F0B070309606
:1037050094EFAF6F2FEEAE6E2E1252EDAD6D2DEC28
:10371500AC6C2C1050EBAB6B2BEAAA6A2A0E4EE967
:10372500A96929E8A868280C4CE7A76727E6A666D3
:10373500260A4AE5A56525E4A464240848E3A363AD
:1037450023E2A262220646E1A16121E0A0602004F5
:1037550044DF9F5F1FDE9E5E1E4240DD9D5D1DDCDA
:103765009C5C1C8280DB9B5B1BDA9A5A1A0200D98F
:10377500995919D8985818C2C0D4D6D8DA989496B9
:10378500DCDEE0E2A09C9E97D757034383C399D91B
:1037950059094989C98BCB4B0D4D8DCD9BDB5B0FF2
:1037A5004F8FCF7E306D79335B5F707F7B00221644
:1037B5004742102510004A1031FEFDFBF7EFDFBF31
:1037C5007FBF7F41118E0041114D0044118F0000D4
:0937D500000044101D000000007A
:1044890090118FE0FCA3E0FDA3E0FEA3E0FF123B47
:104499007B90101DE0FCA3E0FDA3E0FEA3E0FF90EC
:0944A9000004123B95E4FEFF2221
:10444F007B017A12792D124489E47FE87E03FDFC0B
:10445F0090122DE0F8A3E0F9A3E0FAA3E0FB123BE2
:10446F002C901231E0F8A3E0F9A3E0FAA3E02FFFBC
:09447F00EA3EFEE93DFDE83CFCCB
:014488002211
:10438700FDFC7F07FE1243A40D7F077E001243A4A6
:0D439700E41D7F06FE1243A40D7F067E008C
:1043A400EF7802C333CE33CED8F924FEF5827411EC
:1043B4003EF583C083C082E0FFAE05A80674010801
:0D43C4008002C333D8FC4FD082D083F0229A
:1043D100E41D7F04FE1243A40D7F047E001243A45A
:0543E1000D7F057E00C8
:1043E600EF7802C333CE33CED8F924FEF5827411AA
:1043F6003EF583C083C082E0FFAE05A806740108BF
:0E4406008002C333D8FCF45FD082D083F02252
:0944F7007E007F3C7D00123BC5F4
:0945000012444F901235023BB940
:0B001E00901193EBF0A3EAF0A3E9F0CF
:10002900E4901199F0A3F0901199E0FEA3E0FFC3C9
:0C0039009414EE6480948040030203BA2B
:10004500EF25E0FFEE33FEEF24D9FFE43EFE9011ED
:1000550096E0FBA3E0FAA3E0F98F828E831239368E
:1000650075F010A4FD90119AE025E0FF901199E03C
:1000750033FE74D82FF582E43EF583123936FFE559
:10008500F0FEED4FFF90119DEEF0A3EFF09011996A
:10009500E0FEA3E0FF24FCFDEE34FFFCC3ED940875
:1000A500EC94005041EF25E0FFEE33FEEF24BCFF5A
:1000B500E43EFE8F828E831239365403FF90119FE2
:1000C500E4F0A3EFF090119FE0FCA3E0FD25E0FB39
:1000D500EC33FAECA2E713ED13FFEF4B5403FF905B
:0600E500119FE4020199E5
:1000EB0078A17C117D017BFF7A4479277E007F28E4
:1000FB001238F790119AE025E0FF901199E033FE4A
:10010B0074A12FF58274113EF583E0FD9011C9E4C3
:10011B00F0A3EDF074A22FF58274113EF583E0FF8E
:10012B009011CBE4F0A3EFF0901196E0FBA3E0FA73
:10013B00A3E0F99011CAE02402FF9011C9E034004A
:10014B008F82F583123936FF9011CBA3E0FDF8EFC8
:10015B00088002C313D8FC5401FF90119FE4F0A355
:10016B00EFF09011C9E0FEA3E0F5828E83123936D1
:10017B00FFA805088002C313D8FC5401FD9011A001
:10018B00E025E0FF90119FE033FEEF4DFFEEF0A373
:02019B00EFF083
:10019D0090119DE0FEA3E07802C333CE33CED8F9A3
:1001AD00FF90119FE04EFEA3E04FFF90119DEEF0EA
:1001BD00FCA3EFF0FD901193E0FBA3E0FAA3E02484
:1001CD0014F9E43AFA90119AE025E0FF901199E0C4
:1001DD0033FEE92FF9EA3EFA123A7D6D7003EC65B4
:1001ED00F070030203A990119DE0FFA3E0CF8FF003
:1001FD00123AE0E490119BF0A3F090119BE0FEA366
:10020D00E0FFC3940AEE6480948040030203A9A327
:10021D00E020E1030202D2901199E0FCA3E0FDC3BE
:10022D009408EC648094805028EF7802C333CE3369
:10023D00CED8F924FBF58274113EF583C083C082BC
:10024D00E0FFAE05A8067401088002C333D8FC8018
:10025D0070901199E0FCA3E0FDC3940CEC648094C4
:10026D0080502DA3E0FEA3E07802C333CE33CED869
:10027D00F924FCF58274113EF583C083C082E0FF42
:10028D00ED24F8FEF87401088002C333D8FC8031E8
:10029D0090119BE0FEA3E07802C333CE33CED8F9A4
:1002AD0024FDF58274113EF583C083C082E0FF907A
:1002BD001199A3E024F4FEF87401088002C333D829
:1002CD00FC4F020386901199E0FCA3E0FDC3940856
:1002DD00EC64809480502EA3E0FEA3E07802C3333B
:1002ED00CE33CED8F924FBF58274113EF583C0834D
:1002FD00C082E0FFAE05A8067401088002C333D8A2
:10030D00FCF45F8074901199E0FCA3E0FDC3940CA4
:10031D00EC64809480502FA3E0FEA3E07802C333F9
:10032D00CE33CED8F924FCF58274113EF583C0830B
:10033D00C082E0FFED24F8FEF87401088002C3339B
:10034D00D8FCF45F803390119BE0FEA3E07802C3EC
:10035D0033CE33CED8F924FDF58274113EF583C02A
:10036D0083C082E0FF901199A3E024F4FEF874019C
:10037D00088002C333D8FCF45FD082D083F0901193
:10038D009CE004F0700690119BE004F090119EE04B
:0C039D0025E0F090119DE033F002020713
:1003A90090119AE004F07006901199E004F00200AF
:0103B9003013
:1003BA00901196E0FBA3E0FAA3E0F99000BA123993
:1003CA003675F010A4FF9000B8123936FDE5F0FC3E
:1003DA00EF4DFD9000BC1239364CFC9000BE12392C
:1003EA0036C454F04CFEEDFF90119DEEF0A3EFF0F1
:1003FA00901193E0FBA3E0FAA3E0F990000E123A01
:10040A00A8FDE5F06EFEED6FFF90119FEEF0A3EFF1
:10041A00F04E700302061790119DE0FFA3E09000D2
:10042A000ECF8FF0123AFFE4FDFC7F08FE1243E67E
:10043A000D7F087E001243E60D7F087E001243E618
:10044A000D7F087E001243E6E4FD7F09FE1243E6B3
:10045A000D7F097E001243E60D7F097E001243E6F6
:10046A000D7F097E001243E690119DE0FEA3E0FF96
:10047A0064F04E6006BE1122BF111FE4FDFC7F0826
:10048A00FE1243A40D7F087E001243A40D7F087E4E
:10049A00001243A40D7F0802057D90119DE0FEA382
:1004AA00E0FF64407003EE64266008E4B50724EEBA
:1004BA00B456207D017C007F087E001243A47F0988
:1004CA007E001243A40D7F097E001243A40D7F090A
:1004DA0002057D90119DE0FEA3E0FF64207003EE0B
:1004EA0064466008E4B5071AEEB465167D027C001E
:1004FA007F087E001243A47F097E001243A41D02D6
:10050A0005BC90119DE0FAA3E0FBBA0521BB501E81
:10051A007D017C007F097E001243A47F087E0012C1
:10052A0043A40D7F087E001243A47F098045EB7027
:10053A0003EA6417601F90119DE0FEA3E0FF7003B9
:10054A00EE64726010EF64407003EE64646006BE8D
:10055A002226BF60237D027C007F087E001243A40E
:10056A001D7F087E001243A40D7F097E001243A45A
:10057A000D7F097E0002061490119DE0FEA3E0FFA4
:10058A007003EE64716018EF7003EE64276010EF79
:10059A0064607003EE64446006BE6224BF20217D5D
:1005AA00027C007F087E001243A41D7F087E001291
:1005BA0043A47F097E001243A4E41D7F09FE804AFA
:1005CA0090119DE0FEA3E0FF7003EE6474601CEFDF
:1005DA0064207003EE64266012EF64407003EE64D8
:1005EA00466008E4B50726EEB447227D017C007F09
:1005FA00087E001243A47F097E001243A40D7F09DE
:0D060A007E001243A4E4FD7F09FE1243A40C
:10061700901196E0FBA3E0FAA3E0F99000C6123927
:100627003675F010A4FF9000C4123936FDE5F0FCD2
:10063700EF4DFD9000C81239364CFC9000CA1239B4
:1006470036C454F04CFEEDFF90119DEEF0A3EFF091
:10065700EE548CFEEF54CCFF90119DEEF0A3EFF01B
:10066700901193E0FBA3E0FAA3E0F990000C123A93
:10067700A86F7003EE65F0700302070D90119DE0FF
:10068700FFA3E090000CCF8FF0123AFFE490119B8C
:10069700F0A3F090119BE0FEA3E0FFC3940AEE6481
:1006A7008094805032EF25E0FFEE33FE74002FF583
:1006B7008274003EF583E0FEA3E0FF90119DE06E9B
:1006C7007003A3E06F601090119CE004F070C49079
:1006D700119BE004F080BC90119BE0FEA3E0FFC3F8
:1006E700940AEE648094805002801390119BE0FE80
:1006F700A3E0FF7C007D0A123A31AE04AF059010EB
:1007070019EEF0A3EFF0901196E0FBA3E0FAA3E057
:10071700F99000CE12393675F010A4FF9000CC1274
:100727003936FDE5F0FCEF4DFD9000D01239364C1F
:10073700FC9000D2123936C454F04CFEEDFF9011F4
:100747009DEEF0A3EFF0EE548CFEEF54CCFF90112A
:100757009DEEF0A3EFF0901193E0FBA3E0FAA3E086
:10076700F9900010123AA86F7003EE65F07003025B
:10077700080390119DE0FFA3E0900010CF8FF012C7
:100787003AFFE490119BF0A3F090119BE0FEA3E0E9
:10079700FFC3940AEE648094805032EF25E0FFEEA9
:1007A70033FE74002FF58274003EF583E0FEA3E06C
:1007B700FF90119DE06E7003A3E06F601090119C95
:1007C700E004F070C490119BE004F080BC90119B92
:1007D700E0FEA3E0FFC3940AEE6480948050028099
:1007E7001390119BE0FEA3E0FF7C007D0A123A31D3
:0C07F700AE04AF0590101BEEF0A3EFF075
:10080300901196E0FBA3E0FAA3E0F990004F1239B0
:1008130036FF90102FE4F0A3EFF090004E1239361C
:10082300FF90103DE4F0A3EFF090004D123936FF36
:10083300901021E4F0A3EFF090004C123936FF90B2
:10084300114EE4F0A3EFF0901202E04410F0901286
:1008530016E04408F090120EE04408F09011FEE018
:100863004420F0901019E0FAA3E0FB64014A700CF5
:100873007D05FC7F08FE1243E6020992EB64024AFF
:10088300702B7D05FC7F08FE1243A47F077E0012B8
:1008930043E61243A07F057E001243A47F047E003B
:1008A3001243A47F037E001243E6020A4690101906
:1008B300E0FAA3E0FB64034A702B7D05FC7F08FE8E
:1008C3001243A47F077E001243E61243A07F057EF6
:1008D300001243A47F047E001243E67F037E0012CE
:1008E30043A4020A46EB64044A701D7D05FC7F089D
:1008F300FE1243E67F077E001243A41243A07F0546
:100903007E001243A402099F901019E0FAA3E0FBB2
:1009130064054A702F7D05FC7F08FE1243A47F0700
:100923007E001243A47F067E001243E67F057E000D
:100933001243A47F047E001243E67F037E0012432A
:10094300A4020A46EB64064A702F7D05FC7F08FE6D
:100953001243A47F077E001243A47F067E00124346
:10096300E67F057E001243A47F047E001243A47F2A
:10097300037E001243A4020A46901019E0FAA3E092
:10098300FB64074A702E7D05FC7F08FE1243A47F9B
:10099300077E001243E61243A01243E27F047E0067
:1009A3001243E67F037E001243A47F027E001243BC
:1009B300E6020A4DEB64084A702A7D05FC7F08FEB7
:1009C3001243A47F077E001243A41243A07F057E37
:1009D300001243A47F047E001243A47F037E00120F
:1009E30043A4805F901019E0FAA3E0FB64094A7006
:1009F3002A7D05FC7F08FE1243A47F077E00124375
:100A0300A41243A07F057E001243A47F047E00123C
:100A130043E67F037E001243A48028EB4A702B7DBC
:100A230005FC7F08FE1243A47F077E001243A41235
:100A330043A01243E27F047E001243A47F037E009F
:100A43001243A47F027E001243A490101BE0FAA37A
:100A5300E0FB64014A700C7D04FC7F08FE1243E650
:100A6300020B79EB64024A702B7D04FC7F08FE12B3
:100A730043A47F077E001243E61243A07F057E0056
:100A83001243A47F047E001243A47F037E0012431B
:100A9300E6020C2D90101BE0FAA3E0FB64034A70FE
:100AA3002B7D04FC7F08FE1243A47F077E001243C4
:100AB300E61243A07F057E001243A47F047E00124A
:100AC30043E67F037E001243A4020C2DEB64044A29
:100AD300701D7D04FC7F08FE1243E67F077E001233
:100AE30043A41243A07F057E001243A4020B869009
:100AF300101BE0FAA3E0FB64054A702F7D04FC7F22
:100B030008FE1243A47F077E001243A47F067E00E3
:100B13001243E67F057E001243A47F047E00124346
:100B2300E67F037E001243A4020C2DEB64064A7099
:100B33002F7D04FC7F08FE1243A47F077E0012432F
:100B4300A47F067E001243E67F057E001243A47F46
:100B5300047E001243A47F037E001243A4020C2DE3
:100B630090101BE0FAA3E0FB64074A702E7D04FC9F
:100B73007F08FE1243A47F077E001243E61243A0C0
:100B83001243E27F047E001243E67F037E0012439A
:100B9300A47F027E001243E6020C34EB64084A7021
:100BA3002A7D04FC7F08FE1243A47F077E001243C4
:100BB300A41243A07F057E001243A47F047E00128B
:100BC30043A47F037E001243A4805F90101BE0FACE
:100BD300A3E0FB64094A702A7D04FC7F08FE1243EC
:100BE300A47F077E001243A41243A07F057E001258
:100BF30043A47F047E001243E67F037E001243A4D6
:100C03008028EB4A702B7D04FC7F08FE1243A47FEF
:100C1300077E001243A41243A01243E27F047E0026
:100C23001243A47F037E001243A47F027E0012437B
:100C3300A490114EE0FAA3E0FB64014A7033FDFC7B
:100C4300FFFE1243A47D02E4FFFE1243A4E4FD7FF2
:100C530001FE1243E60DE4FFFE1243E67D037F012E
:100C63007E001243E67D017F017E001243E6020D02
:100C730007EB64024A7035FDFCFFFE1243A4E47FD8
:100C830001FE1243A40DE4FFFE1243A40D7F017E77
:100C9300001243A40D7F017E001243A47D017F0156
:100CA3007E001243E60DE4FFFE020DB290114EE00A
:100CB300FAA3E0FB64034A7019FDFC7F01FE1243B3
:100CC300A40D7F017E001243E6E41DFFFE1243A440
:100CD300805EEB64044A7034FDFC7F01FE1243E640
:100CE3000D7F017E001243A4E41DFFFE1243A40DF9
:100CF300E4FFFE1243A40D7F017E001243E6E4FFEE
:100D0300FE1243A40D7F017E00020DB290114EE04E
:100D1300FAA3E0FB64054A7029FDFC7F01FE124340
:100D2300A40D7F017E001243A4E41DFFFE1243E6DF
:100D33000DE4FFFE1243A40D7F017E001243E60281
:100D43000E41EB64064A7029FDFC7F01FE1243A4A9
:100D53000D7F017E001243A4E41DFFFE1243E60D46
:100D6300E4FFFE1243A40D7F017E001243A4020E92
:100D73004190114EE0FAA3E0FB64074A7037FDFC93
:100D83007F01FE1243A40D7F017E001243E6E41DA2
:100D9300FFFE1243A40DE4FFFE1243E60D7F017E26
:100DA300001243E6E4FFFE1243A40D7F017E00120E
:100DB30043E6020E4FEB64084A7028FDFC7F01FEF8
:100DC3001243A40D7F017E001243A4E41DFFFE1213
:100DD30043A40DE4FFFE1243A40D7F017E001243E2
:100DE300A4805B90114EE07004A3E064097028FDB9
:100DF300FC7F01FE1243A40D7F017E001243A4E495
:100E03001DFFFE1243A40DE4FFFE1243A40D7F0158
:100E13007E001243E68027E4FDFC7F01FE1243A41B
:100E23000D7F017E001243A4E41DFFFE1243A40DB7
:100E3300E4FFFE1243E60D7F017E001243A4E4FFAC
:100E4300FE1243A40D7F017E001243A4901021E003
:100E5300FAA3E0FB64014A700BFDFC7F03FE12431F
:100E6300E6020F93EB64024A7032FDFC7F03FE122D
:100E730043A40D7F037E001243E6E41D7F02FE12AE
:100E830043A40D7F027E001243A40D7F037E001254
:100E930043A47F027E001243E6021062901021E019
:100EA300FAA3E0FB64034A7032FDFC7F03FE1243A6
:100EB300A40D7F037E001243E6E41D7F02FE12436E
:100EC300A40D7F027E001243A40D7F037E00124314
:100ED300E67F027E001243A4021062EB64044A70B0
:100EE30023FDFC7F03FE1243E60D7F037E001243C6
:100EF300A4E41D7F02FE1243A40D7F027E00124371
:100F0300A4020FAB901021E0FAA3E0FB64054A7042
:100F130032FDFC7F03FE1243A40D7F037E001243C8
:100F2300A4E41D7F02FE1243E60D7F027E001243FE
:100F3300A40D7F037E001243E67F027E001243A4CA
:100F4300021062EB64064A7032FDFC7F03FE12431B
:100F5300A40D7F037E001243A4E41D7F02FE12430F
:100F6300E60D7F027E001243A40D7F037E00124331
:100F7300A47F027E001243A4021062901021E0FAC3
:100F8300A3E0FB64074A703AFDFC7F03FE1243A40F
:100F93000D7F037E001243E6E41D7F02FE1243A48D
:100FA3000D7F027E001243E60D7F037E001243E6AF
:100FB3007F027E001243A40D7F037E001243E602EC
:100FC300106AEB64084A7031FDFC7F03FE1243A4F0
:100FD3000D7F037E001243A4E41D7F02FE1243A48F
:100FE3000D7F027E001243A40D7F037E001243A4F3
:100FF3007F027E001243A48066901021E07004A358
:10100300E06409702AFDFC7F03FE1243A40D7F03F5
:101013007E001243A4E41D7F02FE1243A40D7F024F
:101023007E001243A40D7F037E001243E68029E471
:10103300FDFC7F03FE1243A40D7F037E001243A435
:10104300E41D7F02FE1243A40D7F027E001243E6DD
:101053000D7F037E001243A47F027E001243A40D82
:101063007F037E001243A490103DE0FAA3E0FB64EB
:10107300014A700BFDFC7F05FE1243E602117CEB77
:1010830064024A702AFDFC7F05FE1243DEE41D7FE5
:1010930004FE1243A40D7F047E001243A40D7F05BA
:1010A3007E001243A47F047E001243E602122090C6
:1010B300103DE0FAA3E0FB64034A7015FDFC7F05D5
:1010C300FE1243DE1243D17F047E001243A40212B8
:1010D30020EB64044A7023FDFC7F05FE1243E60DFA
:1010E3007F057E001243A4E41D7F04FE1243A40D7A
:1010F3007F047E001243A402118F90103DE0FAA3F7
:10110300E0FB64054A7025FDFC7F05FE1243A40D38
:101113007F057E001243A4E41D7F04FE1243E61202
:1011230043D97F047E001243A4021220EB64064AD3
:101133007032FDFC7F05FE1243A40D7F057E001275
:1011430043A4E41D7F04FE1243E60D7F047E0012D8
:1011530043A40D7F057E001243A47F047E00124347
:10116300A402122090103DE0FAA3E0FB64074A704A
:1011730024FDFC7F05FE1243A41243E1E41D7F041A
:10118300FE1243A40D7F047E001243E61243E112D4
:1011930043DA021228EB64084A7031FDFC7F05FE36
:1011A3001243A40D7F057E001243A4E41D7F04FEB9
:1011B3001243A40D7F047E001243A40D7F057E001D
:1011C3001243A47F047E001243A4805190103DE09B
:1011D3007004A3E064097015FDFC7F05FE1243A4AF
:1011E3000D7F057E001243A41243D18029E4FDFC48
:1011F3007F05FE1243A40D7F057E001243A4E41D68
:101203007F04FE1243A40D7F047E001243E60D7F8C
:10121300057E001243A47F047E001243A40D7F05C4
:101223007E001243A490102FE0FAA3E0FB64014A6E
:10123300700BFDFC7F07FE1243E6021327EB6402EB
:101243004A7025FDFC7F07FE1243A40D7F077E0035
:101253001243E61243970D7F077E001243A47F06D5
:101263007E001243E60213B090102FE0FAA3E0FBD6
:1012730064034A7021FDFC7F07FE1243A40D7F0720
:101283007E001243E61243970D7F077E001243E66A
:101293001243A00213B0EB64044A700EFDFC7F07F7
:1012A300FE1243E612438F02133F90102FE0FAA37E
:1012B300E0FB64054A7029FDFC7F07FE1243A40D81
:1012C3007F077E001243A4E41D7F06FE1243E6124D
:1012D300439F0D7F077E001243E61243A00213B023
:1012E300EB64064A7029FDFC7F07FE1243A40D7FC1
:1012F300077E001243A4E41D7F06FE1243E6124359
:101303009F0D7F077E001243A41243A00213B090E7
:10131300102FE0FAA3E0FB64074A7036FDFC7F0759
:10132300FE1243A40D7F077E001243E6E41D7F06F1
:10133300FE1243A40D7F067E001243E60D7F077E57
:10134300001243E61243A00D7F077E001243E6021C
:1013530013B8EB64084A70101243870D7F077E00B1
:101363001243A41243A0804590102FE07004A3E021
:101373006409700D1243870D7F077E001243E680D8
:1013830029E4FDFC7F07FE1243A40D7F077E0012B4
:1013930043A4E41D7F06FE1243A40D7F067E0012C4
:1013A30043E60D7F077E001243A41243A00D7F077F
:1013B3007E001243A4901196E0FBA3E0FAA3E0F9A8
:1013C3009000B7123936640A9012027006E0442086
:1013D300F08004E054DFF090103BE07002A3E09053
:1013E30012066006E04408F08004E054F7F0901021
:1013F30017E07002A3E09011FE6008E04410F0547F
:0A140300F7F022E04408F054EFF087
:01140D0022BC
:1040FA00E5905403900015F0E0FFE5B054FCFEEFA4
:10410A004EF0900014E0FFA3E0FE6FFFEEF45FA311
:10411A00F0900015E0FF30E007E4901027F08006E9
:10412A00901027E004F0EF30E107E4901028F080C7
:10413A0006901028E004F0EF30E207E4901029F02E
:10414A008006901029E004F0EF30E307E490102A8B
:10415A00F0800690102AE004F0EF30E407E49010B3
:10416A002BF0800690102BE004F0EF30E507E49086
:10417A00102CF0800690102CE004F0EF30E607E4F3
:10418A0090102DF0800690102DE004F0EF30E70734
:10419A00E490102EF0800690102EE004F0900014A7
:0241AA00EFF034
:0141AC0022F0
:103E17001240FA90000AE4F5F0123AFF30950520B7
:103E270095FDC293901027E0603290103BE070023E
:103E3700A3E060097BFF7A44791712423990101783
:103E4700E07002A3E0600AE4901017F0A3F0023FCD
:103E57003C901017E4F0A304F0023F3C901029E0D7
:103E6700603A90103BE07002A3E060097BFF7A4460
:103E7700791A124239901023E07004A3E0640270AB
:103E870008901023F0A3F0800E901024E004F07047
:103E970006901023E004F07E007FEF2290102AE0C6
:103EA700602090103BE07002A3E06009E490103BB3
:103EB700F0A3F0800890103BE4F0A304F07E007FAD
:103EC700DF2290102BE0601890103BE07002A3E017
:103ED70060097BFF7A4479141242397E007FFB2206
:103EE70090102CE0601890103BE07002A3E060098E
:103EF7007BFF7A4479141242397E007FFD229010AD
:103F07002DE0601890103BE07002A3E060097BFF92
:103F17007A4479141242397E007FF72290102EE0FE
:103F2700601890103BE07002A3E060097BFF7A44C1
:0F3F370079141242397E007FFE227E007FFF2226
:044519007F55DFFEED
:01451D00227B
:1042BC00AE07C2B1124519EE30E004D2B18002C291
:1042CC00B1124519EE30E104D2B18002C2B11245EF
:1042DC0019EE30E204D2B18002C2B1124519EE30AF
:1042EC00E304D2B18002C2B1124519EE30E404D21B
:1042FC00B18002C2B1124519EE30E504D2B1800290
:10430C00C2B1124519EE30E604D2B18002C2B1122C
:10431C004519EE30E704D2B18002C2B1124519D270
:04432C00B10245197C
:0B140E009011D8EBF0A3EAF0A3E9F086
:101419009011DEE0FBA3E0FAA3E0F9900100123A93
:10142900A8FF9011E1E5F0F0A3EFF0900104123963
:1014390036FF9011E3E4F0A3EFF090010A12393678
:10144900FF9011E5E4F0A3EFF0E4A3F0A3740FF02B
:10145900A3F0A3F0E4A3F0A3F0A3F0A3F0A3F0A3F7
:0E146900F0A3F0A3F0A3F0A3F0A3F0A304F00F
:101477009011D8E0FBA3E0FAA3E0F99011E1E0FEB8
:10148700A3E0F5828E83123936FF7E009011F9EEC4
:10149700F0A3EFF0EE60030226EDEF9014B075F0C5
:1014A70003A4C58325F0C583730217B00217E102B1
:1014B700181F02185B0218A00219100218A00219BF
:1014C7001002197E02197E0219F80219F8021A741D
:1014D700021A74021A74021A74021B09021B3C02D4
:1014E7001B09021B3C021B09021B3C021B09021BB6
:1014F7003C021B09021B3C021B72021B9A021BC502
:10150700021BF0021C24021C57021C8A021CBA028E
:101517001C8A021CBA021C8A021CBA021C8A021C00
:10152700BA021C8A021CBA021CE8021CF20226ED4F
:101537000226ED021CF8021D12021D43021D4F0276
:101547001D61021D6D021D790226ED021D85022611
:10155700ED021DB9021DCC021DDE021DF9021E158A
:10156700021E350226ED021E59021E6B021EBD0227
:101577001F17021F43021F71021F9F021FC8021F6E
:10158700FC0226ED0226ED0226ED0226ED02202EB4
:101597000220C102214E02217D02220E02220E02EA
:1015A700220E02220E02220E02220E02220E022218
:1015B7000E02220E02220E02220E02220E02220E1C
:1015C70002220E02220E02220E02225C02225C027C
:1015D700225C02225C02225C02225C02225C022262
:1015E7005C02225C02225C02225C02225C02225C18
:1015F70002225C02225C02225C0222AA0222AA02C6
:1016070022AA0222AA0222AA0222AA0222AA0222AB
:10161700AA0222AA0222AA0222AA0222AA0222AA13
:101627000222AA0222AA0222AA0222BC0222BC0287
:1016370022BC0222BC0222BC0222BC0222BC022221
:10164700BC0222BC0222BC0222BC0222BC0222BC77
:101657000222BC0222BC0222BC0222BC0222BC0221
:1016670022BC0222BC0222BC0222BC0222BC0222F1
:10167700BC0222BC0222BC0222BC0222BC0222BC47
:101687000222BC0222BC0222BC0223320223320203
:10169700233202233202233202233202233202236D
:1016A700320223950223950223950223950223955F
:1016B7000223950223950223950223F80223F802B9
:1016C70023F80223F80223F80223F80223F802235F
:1016D700F8022452022452022452022452022452B3
:1016E7000224520224520224520224AC0224AC02E5
:1016F70024AC0224AC0224AC0224AC0224AC0224A5
:10170700AC02250602250602250602250602250645
:10171700022506022506022506022560022560022B
:1017270025600225600225600225600225600225EA
:10173700600225DB0225DB0225DB0225DB0225DB38
:101747000225DB0225DB0225DB0226520226520296
:1017570026520226520226520226520226520226FA
:1017670052022652022652022652022652022652BE
:10177700022652022652022652022692022692027E
:10178700269202269202269202269202269202268A
:10179700920226920226920226920226920226920E
:1017A7000226920226920226929011E3E0FCA3E021
:1017B700FD5401FFA3E4F0A3EFF0EDC4F8540FC804
:1017C70068FFECC454F048FE9011E3E04EFEA3E03E
:1017D7004FFFEEC313EF130218969011E3E0FCA33B
:1017E700E0FDAE047803CEC313CE13D8F9FF9011F2
:1017F700E5EEF0A3EFF0EDC4F8540FC868FFECC4B2
:1018070054F048FE9011E3E04EFEA3E04F7803CE7C
:10181700C313CE13D8F980779011E6E0C4F8540FBC
:10182700C868FF9011E5E0C454F048FE9011E3E06A
:101837004EF0A3E04FF09011E3E0FCA3E0FD54016C
:10184700FFA3E4F0A3EFF0ECC313FFED139011E354
:10185700CF0222B59011E4E025E0FF9011E3E033D9
:10186700FE9011E5E04EFEA3E04FFF9011E3EEF08E
:10187700A3EFF09011E3E0FCA3E0FDECC4F854F013
:10188700C868FFEDC4540F48A3CFF0A3EFF0ED54A1
:101897000FFF9011E3E40222B57E009011FAE054A5
:1018A70002FF9011F7EEF0A3EFF09011DEE0FBA33B
:1018B700E0FAA3E02405F9EA3401FAE92FF9EE3A50
:1018C700FA12391DFD9011DEA3E0FAA3E0F9901199
:1018D700F8E02406FF9011F7E034018F82F58312B8
:1018E700393675F010A4FFEF4DFF9011F7E5F0F0D2
:1018F700A3EFF09011F7E0FEA3E0F5828E83123993
:1019070036FF9011E3E40222B57E009011FAE0540D
:1019170002FF9011F7EEF0A3EFF09011DEE0FBA3CA
:10192700E0FAA3E02405F9EA3401FAE92FF9EE3ADF
:10193700FA12391DFD9011DEA3E0FAA3E0F9901128
:10194700F8E02406FF9011F7E034018F82F5831247
:10195700393675F010A4FFEF4DFF9011F7E5F0F061
:10196700A3EFF09011E3A3E0FF9011F7E0FCA3E0F1
:10197700F5828C83021FF89011F9E0FEA3E0F4FFD3
:10198700EEF4FE9011E5E05EF0A3E05FF09011DE6B
:10199700E0FBA3E0FAA3E0F990010612393675F0EF
:1019A70010A4FF900105123936FDEF4DF58285F041
:1019B70083123936FF9011E6E02FFF9011E5E034EE
:1019C70000FE9011E4E02FF09011E3E03EF0E0FC20
:1019D700A3E0FDECC4F854F0C868FFEDC4540F4809
:1019E700A3CFF0A3EFF0ED540FFF9011E3E4022231
:1019F700B59011FAE05401FF9011E5E0F0A3E04F34
:101A0700F09011DEE0FBA3E0FAA3E0F990010612E3
:101A1700393675F010A4FF900105123936FDEF4DE8
:101A2700F58285F083123936FFC3740F9FFFE49464
:101A370000FE9011E6E02FFF9011E5E03EFE9011C9
:101A4700E4E02FF09011E3E03EF0E0FCA3E0FDECD2
:101A5700C4F854F0C868FFEDC4540F48A3CFF0A3EF
:101A6700EFF0ED540FFF9011E3E40222B57E0090F2
:101A770011FAE05402FF9011F7EEF0A3EFF0901186
:101A8700DEE0FBA3E0FAA3E02405F9EA3401FAE972
:101A97002FF9EE3AFA12391DFD9011DEA3E0FAA3F1
:101AA700E0F99011F8E02406FF9011F7E034018F78
:101AB70082F58312393675F010A4FFEF4DFF9011B0
:101AC700F7E5F0F0A3EFF09011F7E0FEA3E0F58261
:101AD7008E83123936FF9011FAE030E0047EFF80E2
:101AE700027E01EE2F540FFF9011DEE0FBA3E0FA18
:101AF700A3E0F99011F7E0FCA3E0F5828C83EF02F5
:101B070025D59011F9E0C313A3E0137E005407FF16
:101B17009011F7EEF0A3EFF09011DEE0FBA3E0FAEF
:101B2700A3E02405F9EA3401FAE92FF9EE3AFA12AB
:101B3700391D0480319011F9E0C313A3E0137E002F
:101B47005407FF9011F7EEF0A3EFF09011DEE0FBE2
:101B5700A3E0FAA3E02405F9EA3401FAE92FF9EE44
:101B67003AFA12391D14540F021CB49011DEE0FB2F
:101B7700A3E0FAA3E0F990010612393675F010A434
:101B8700FF900105123936FDEF4DFF8F8285F083F7
:101B9700021F339011DEE0FBA3E0FAA3E0F9900106
:101BA7000612393675F010A4FF900105123936FD7B
:101BB700EF4DFF8F8285F083123936021F64901133
:101BC700DEE0FBA3E0FAA3E0F990010612393675CF
:101BD700F010A4FF900105123936FDEF4DFF8F82FB
:101BE70085F083123936021F929011DEE0FBA3E0E5
:101BF700FAA3E0F990010612393675F010A4FF90A8
:101C07000105123936FDEF4DFFE92FF9EA35F0FAF4
:101C170012391DFF9011E3A3E05F021CB49011DE9F
:101C2700E0FBA3E0FAA3E0F990010612393675F05C
:101C370010A4FF900105123936FDEF4DFFE92FF98A
:101C4700EA35F0FA12391DFF9011E3A3E06F805DCA
:101C57009011DEE0FBA3E0FAA3E0F9900106123948
:101C67003675F010A4FF900105123936FDEF4DFFD0
:101C7700E92FF9EA35F0FA12391DFF9011E3A3E0D5
:101C87004F802A9011E3A3E0FD9011DEE0FBA3E073
:101C9700FAA3E02405F9EA3401FA9011F9E0C31335
:101CA700A3E0137E00540729F9EE3AFAED123996AC
:101CB7000226ED9011DEE0FBA3E0FAA3E02405F98C
:101CC700EA3401FA9011F9E0C313A3E0137E00543C
:101CD7000729F9EE3AFA12391DFF9011E3EE0222B5
:101CE700B5E49011E5F0A3F00226ED9011E5021D91
:101CF700B19011DEE0FBA3E0FAA3E0F99001021234
:101D07003AA8FF9011E1E5F00226819011DEE0FB91
:101D1700A3E0FAA3E0F9900102123AA8FF9011E1BB
:101D2700E5F0F0A3EFF09011E1E0C4540FFF90113C
:101D3700E5E4F0A3EFF09011E20226859011E3A30A
:101D4700E09011E7F00226ED9011E4E02401FF9006
:101D570011E3EF540FFFE40222B59011E8E0FF9082
:101D670011E3E40222B59011E9E0FF9011E3E402E8
:101D770022B59011EAE0FF9011E3E40222B5901139
:101D8700E3E0FEA3E0FFC3940AEE9400500BA3E048
:101D97007002A3E070030226EDEF2406FFEF540F55
:101DA700FF9011E3E4F0A3EFF0A3E4F0A304F00243
:101DB70026ED9011DEE0FBA3E0FAA3E0F990010D18
:101DC70074010225D59011DEE0FBA3E0FAA3E0F948
:101DD70090010DE40225D59011DEE0FBA3E0FAA304
:101DE700E0F990010B123936540FFF9011E3E4022A
:101DF70022B59011DEE0FBA3E0FAA3E0F990010B16
:101E0700123936C4540FFF9011E3E40222B5901142
:101E1700DEE0FBA3E0FAA3E0F990010B1239365498
:101E2700F0FF9011E3A3E04F90010B0225D590112D
:101E3700DEE0FBA3E0FAA3E0F990010B1239365478
:101E47000FFF9011E3A3E0FEC454F04F90010B0283
:101E570025D59011E4E024FFFF9011E3EF540FFF25
:101E6700E40222B59011D8E0FBA3E0FAA3E0F990D1
:101E770011E1E475F001123A67540F85F082F5839A
:101E8700123936540FFF9011E4E02FF09011E3E080
:101E97003400F0E0FCA3E0FDECC4F854F0C868FFA0
:101EA700EDC4540F48A3CFF0A3EFF0ED540FFF900C
:101EB70011E3E40222B59011D8E0FBA3E0FAA3E016
:101EC700F99011E1E475F001123A67540F85F08239
:101ED700F583123936540FFFC374109FFFE4940043
:101EE700FE9011E4E02FF09011E3E03EF0E0FCA358
:101EF700E0FDECC4F854F0C868FFEDC4540F48A3E4
:101F0700CFF0A3EFF0ED540FFF9011E3E40222B5F9
:101F17009011D8E0FBA3E0FAA3E0F99011E1E47592
:101F2700F001123A67540F85F082F583123936FFB4
:101F37009011E3E4F0A3E05FF00226ED9011D8E002
:101F4700FBA3E0FAA3E0F99011E1E475F001123A7E
:101F570067540F85F082F583123936540FFF9011BD
:101F6700E3E0F0A3E06FF00226ED9011D8E0FBA3C9
:101F7700E0FAA3E0F99011E1E475F001123A675431
:101F87000F85F082F583123936540FFF9011E3E085
:101F9700F0A3E04FF00226ED9011D8E0FBA3E0FAA2
:101FA700A3E0F99011E1E475F001123A67540F8547
:101FB700F082F583123936540FFF9011F7E40222AD
:101FC700B59011D8E0FBA3E0FAA3E0F99011E1E4A2
:101FD70075F001123A67540F85F082F5831239368E
:101FE700540FFF9011DEE0FBA3E0FAA3E0F99001A4
:101FF70009EF0225D59011D8E0FBA3E0FAA3E0F999
:102007009011E1E475F001123A67540F85F082F5FB
:1020170083123936FF9011DEE0FBA3E0FAA3E0F963
:1020270090010BEF0225D59011DEE0FBA3E0FAA3A8
:10203700E0F990010612393675F010A4FF900105FA
:10204700123936FDEF4DF58285F083123936FD9052
:1020570011E4E0C4F8540FC868FF9011E3E0C454DA
:10206700F048FE9011E1E0540F4EFEEF4DFF901146
:10207700D8E0FBA3E0FAA3E0F98F828E831239360A
:10208700FF9011E3E4F0A3EFF09011E3E0FCA3E08D
:10209700FDECC4F854F0C8EDC4540F48FF9011DEAE
:1020A700E0FBA3E0FAA3E0F9900109EF1239A8EDEC
:1020B700540FFF9011E3E40222B59011DEE0FBA379
:1020C700E0FAA3E0F990010612393675F010A4FF83
:1020D700900105123936FDEF4DF58285F0831239EF
:1020E70036FD9011E4E0C4F8540FC868FF9011E37F
:1020F700E0C454F048440FFEEF4DFF9011D8E0FBC9
:10210700A3E0FAA3E0F98F828E83123936FF90118C
:10211700E3E4F0A3EFF09011E3E0FCA3E0FDECC4EF
:10212700F854F0C8EDC4540F48FF9011DEE0FBA34C
:10213700E0FAA3E0F9900109EF1239A8ED540FFF77
:102147009011E3E40222B59011DEE0FBA3E0FAA3CD
:10215700E0F9900109123936FD9011E4E0C4F85412
:102167000FC868FF9011E3E0C454F048FE9011E1F6
:10217700E0540F4E80279011DEE0FBA3E0FAA3E0C6
:10218700F9900109123936FD9011E4E0C4F8540FB3
:10219700C868FF9011E3E0C454F048440FFEEF4DC8
:1021A700FF9011D8E0FBA3E0FAA3E0F98F828E83BA
:1021B700123936FF9011E3E4F0A3EFF09011E3E05A
:1021C700C4F854F0C8A3E0C4540F48FD9011DEE0F2
:1021D700FBA3E0FAA3E0F990010612393675F01077
:1021E700A4FF900105123936FBEF4BFF9011DEE09B
:1021F700FB8F8285F083ED1239A8E49011E3F0A3F9
:10220700E0540FF00226ED9011F9A3E0540FFF9070
:1022170011DEE0FBA3E0FAA3E0F9900105EF123924
:10222700A89011D8E0FBA3E0FAA3E0F99011E1E44C
:1022370075F001123A67540F85F082F5831239362B
:10224700540FFF9011DEE0FBA3E0FAA3E0F9900141
:1022570006EF0225D59011F9A3E0540FFF9011DE88
:10226700E0FBA3E0FAA3E0F9900107EF1239A89089
:1022770011D8E0FBA3E0FAA3E0F99011E1E475F0CF
:1022870001123A67540F85F082F583123936540FDD
:10229700FF9011DEE0FBA3E0FAA3E0F9900108EF5D
:1022A7000225D59011FAE0540FFF9011E3E4F0A353
:1022B700EFF00226ED9011E2E02401FF9011E1E03A
:1022C7003400540FFE9011D8E0FBA3E0FAA3E0F925
:1022D7008F828E83123936FD9011FAE05407FE90F3
:1022E70011E1E054084EFEEDFF9011F7EEF0A3EF79
:1022F700F09011E2E004F070069011E1E004F09034
:1023070011F9E0FEA3E07803CEC313CE13D8F95436
:1023170003FF9011E3E0FEA3E0A807088005CEC302
:1023270013CE13D8F930E0630226389011E2E02487
:1023370001FF9011E1E03400540FFE9011D8E0FB4B
:10234700A3E0FAA3E0F98F828E83123936FD90114C
:10235700FAE05407FE9011E1E054084EFEEDFF90BD
:1023670011F7EEF0A3EFF09011E2E004F0700690A1
:1023770011E1E004F09011DEE0FBA3E0FAA3E0F93D
:1023870090010512393660030226380226ED9011B6
:10239700E2E02401FF9011E1E03400540FFE9011B8
:1023A700D8E0FBA3E0FAA3E0F98F828E83123936D7
:1023B700FD9011FAE05407FE9011E1E054084EFE3B
:1023C700EDFF9011F7EEF0A3EFF09011E2E004F0CB
:1023D70070069011E1E004F09011DEE0FBA3E0FA53
:1023E700A3E0F99001061239366003022638022667
:1023F700ED9011E2E02401FF9011E1E03400540F69
:10240700FE9011D8E0FBA3E0FAA3E0F98F828E8358
:10241700123936FD9011FAE05407FE9011E1E054AD
:10242700084EFEEDFF9011F7EEF0A3EFF09011E2EA
:10243700E004F070069011E1E004F09011E3E07021
:1024470002A3E070030226380226ED9011E2E02491
:1024570001FF9011E1E03400540FFE9011D8E0FB2A
:10246700A3E0FAA3E0F98F828E83123936FD90112B
:10247700FAE05407FE9011E1E054084EFEEDFF909C
:1024870011F7EEF0A3EFF09011E2E004F070069080
:1024970011E1E004F09011E3E07002A3E0600302B1
:1024A70026380226ED9011E2E02401FF9011E1E0C9
:1024B7003400540FFE9011D8E0FBA3E0FAA3E0F933
:1024C7008F828E83123936FD9011FAE05407FE9001
:1024D70011E1E054084EFEEDFF9011F7EEF0A3EF87
:1024E700F09011E2E004F070069011E1E004F09042
:1024F70011E5E07002A3E060030226380226ED90A2
:1025070011E2E02401FF9011E1E03400540FFE9046
:1025170011D8E0FBA3E0FAA3E0F98F828E8312398A
:1025270036FD9011FAE05407FE9011E1E054084E91
:10253700FEEDFF9011F7EEF0A3EFF09011E2E0044B
:10254700F070069011E1E004F09011E5E07002A34D
:10255700E070030226380226ED9011E2E02401FF25
:102567009011E1E03400540FFE9011D8E0FBA3E096
:10257700FAA3E0F98F828E83123936FD9011FAE0C3
:102587005407FE9011E1E054084EFEEDFF9011F75D
:10259700EEF0A3EFF09011E2E004F070069011E185
:1025A700E004F09011DEE0FBA3E0FAA3E0F990016C
:1025B7000C12393660149011F8E024FFFE9011F7E1
:1025C700E034FF9011E1F0A3CEF090010CE4123952
:1025D700A80226ED9011E2E02401FF9011E1E0341A
:1025E70000540FFE9011D8E0FBA3E0FAA3E0F98FA7
:1025F700828E83123936FD9011FAE05407FE90114E
:10260700E1E054084EFEEDFF9011F7EEF0A3EFF076
:102617009011E2E004F070069011E1E004F09011EF
:10262700DEE0FBA3E0FAA3E0F99001091239366076
:10263700179011F8E024FFFE9011F7E034FF901196
:10264700E1F0A3CEF00226ED0226ED9011E2E024A0
:1026570001FF9011E1E03400540FFE9011D8E0FB28
:10266700A3E0FAA3E0F98F828E83123936FD901129
:10267700FAE0540FFFED9011E1CFF0A3EFF0E02463
:10268700FFF09011E1E034FFF0805B9011E1E0FE94
:10269700A3E0FF2402FDE43E540FFC9011DEE0FBB3
:1026A700A3E0FAA3E0F9900102EC8DF0123AFFEFF4
:1026B7002401FFE43E540FFE9011D8E0FBA3E0FA9B
:1026C700A3E0F98F828E83123936FD9011FAE05418
:1026D7000FFFED9011E1CFF0A3EFF0E024FFF090B2
:1026E70011E1E034FFF09011E2E02401FF9011E1E5
:1026F700E03400540FF0A3EFF09011ECE004F07019
:10270700069011EBE004F09011DBE0FBA3E0FAA3E5
:10271700E0F9123E179011F1EEF0A3EFF09011F1EE
:10272700E0FCA3E0FD540F9011EAF0ECC4F854F07C
:10273700C8EDC4540F48540F9011E9F09011DEE032
:10274700FBA3E0FAA3E0F990010B7401123963606F
:0B2757000302147790010C041239A853
:03276200021477E7
:1044B200EF1FAC0670011E4C600D0000007D1E7CDB
:0744C200BEDCFEDDFC80E919
:0144C90022D0
:1044CA00759208759120D295D293E4F5B2F5B1753B
:0844DA00B0FF75CA10F5C922FC
:03000B00023C09AB
:103C0900C0E0C0F0C083C082C0D075D000C000C081
:103C190001C002C003C004C005C006C0079012233A
:103C2900E004F09011967401F0A37410F0A3743FAE
:103C3900F07B017A11795212001E90114DE0600358
:103C4900023D297596FFF59575A0FF4392C05391E2
:103C59003F4390C075E1FF75E2FF75F8FF43B3C0BC
:103C690043B4C043C0C090118EE0FFC39408748070
:103C79009480501174312FF582E43410F583E0F506
:103C8900A0F5F8801290118EE02431F582E4341009
:103C9900F583E0529052C075CCFF90118EE0FF255C
:103CA900E025E024FBF582E43411F583E0F4F5CB5B
:103CB90075E8FF43CA0F43C90FEF25E025E024FC4F
:103CC900F582E43411F583E0540FF452C943C80F67
:103CD9007594FF90118EE0FF25E025E024FDF58223
:103CE900E43411F583E0F4F5937580FF43B43F4361
:103CF900B33FEF25E025E024FEF582E43411F58396
:103D0900E0543FF452B343C03F90118EE004F0E019
:103D1900640A6003023DFCF090114D04F0023DFC81
:103D29007596FF7595FF75A0FF4392C04391C043F7
:103D390090C075E2FF75E1FF75F8FF43B4C043B366
:103D4900C043C0C090118EE0FFC394087480948072
:103D5900500F74312FF582E43410F583E0F5E180DA
:103D69001090118EE02431F582E43410F583E0528D
:103D7900B375CCFF75CBFF90118EE0FF25E025E0F0
:103D890024FBF582E43411F583E0F4F5E843CA0F26
:103D990043C90F43C80FEF25E025E024FCF582E471
:103DA9003411F583E0540FF452C87594FF7593FFED
:103DB90090118EE0FF25E025E024FDF582E4341121
:103DC900F583E0F4F58043B43F43B33F43C03FEF8D
:103DD90025E025E024FEF582E43411F583E0543F23
:103DE900F452C090118EE004F0E0640A7005F0907E
:103DF900114DF0D007D006D005D004D003D002D0A1
:0E3E090001D000D0D0D082D083D0F0D0E032F3
:10403600E49011CDF0A3F0A3F0A3F0A37432F0A3A3
:104046007403F0A374E8F0A37403F0A374E8F0A378
:10405600E4F0A37410F07E017F0E7D007B017A10E0
:10406600793F123BC57E007F3C7D007B017A11794A
:1040760052123BC543BA80C2AFE4F5B8D2BB124474
:10408600CA12451E12000ED2AF3095097F027E007D
:104096001244B280F49011D6E0FCA3E0FD4C7E0001
:1040A6007F1060051239DC80009011D6EEF0A3EF88
:1040B600F0D39410EE940040099011D6E4F0A37466
:1040C60010F09011D6E0FFA3E0901158CFF0A3EFC7
:1040D600F09011DB7401F0A37411F0A37452F0A3F5
:1040E6007401F0A37410F0A3743FF07B017A007999
:0440F6001702140E8B
:1037DE0041122300602811FB0000000000000000D1
:1037EE0000000000000000000000000000000000CB
:1037FE0000000000000000000000000000000000BB
:1044E200438E805389F0758AA0758C15C28DD28C4B
:0544F200D2A9D2AF22A7
:03451E000244E272
:1043300096E068F8280E183C70B4FC1496D09EB82D
:104340006A7A898F9CA7ACB5BDC4C7CED3D5DADE57
:10435000005E00690076007E008D009E00A700BC14
:1043600000D300ED00FB011A013C014F017801A6CA
:1043700000102030405060708090A0B0C0D0E0F0BD
:0743800000B1A15373A70077
:10380E0043122800000041122400411227004212E8
:08381E002B00004212250000FE
:09450900438E4053890FC28F223A
:03001B00023F465B
:103F4600C0E0C0F0C083C082C0D075D000C000C041
:103F560001C002C003C004C005C006C00730CC04BF
:103F6600C2CC8002D2CC901226E004F070069012E9
:103F760025E004F090122BE0FEA3E0FF901225E06E
:103F86006E7003A3E06F600302401BC28EC2ABC219
:103F9600CC901225F0A3F0901224E004F0901228A1
:103FA600E0FBA3E0FAA3E0F9901224E0FFF58275A6
:103FB6008300123936FD3395E04D60598F82758343
:103FC60000123936FD7804A2E713D8FB540F90127D
:103FD60027F0ED540FFF3395E0FEEF2401FFE43E9A
:103FE600FEE0FB25E02450F582E43443F583E493B8
:103FF600FC740193FD1239CA90122BEEF0A3EFF078
:10400600EB90433093F58B901227E090434093F565
:104016008DD28ED2ABD007D006D005D004D003D037
:1040260002D001D000D0D0D082D083D0F0D0E03200
:07000300C28EC2ABC2CC2289
:10423900C28EC2ABE4901225F0A3F0901224F09044
:104249001228EBF0A3EAF0A3E9F0901228E0FBA30F
:10425900E0FAA3E0F9901224E0F58275830012399F
:1042690036FD7804A2E713D8FB540F901227F0ED1E
:10427900540FFF3395E0FEEF2401FFE43EFEE0FB1F
:1042890025E02450F582E43443F583E493FC74017A
:1042990093FD1239CA90122BEEF0A3EFF0EB904385
:1042A9003093F58B901227E090434093F58DD28E91
:0342B900D2AB2263
:07451200D28ED2ABD2AF2222
:0C000E001245097BFF7A437981024239D8
:030000000241AD0D
:0C41AD00787FE4F6D8FD7581070241F42C
:10382700E709F608DFFA8046E709F208DFFA803E83
:1038370088828C83E709F0A3DFFA8032E309F60870
:10384700DFFA8078E309F208DFFA807088828C83D8
:10385700E309F0A3DFFA806489828A83E0A3F6088C
:10386700DFFA805889828A83E0A3F208DFFA804C66
:1038770080D280FA80C680D4806980F2803380103D
:1038870080A680EA809A80A880DA80E280CA8033A6
:1038970089828A83ECFAE493A3C8C582C8CCC5831E
:1038A700CCF0A3C8C582C8CCC583CCDFE9DEE780EE
:1038B7000D89828A83E493A3F608DFF9ECFAA9F06D
:1038C700EDFB2289828A83ECFAE0A3C8C582C8CCC3
:1038D700C583CCF0A3C8C582C8CCC583CCDFEADEDC
:1038E700E880DB89828A83E493A3F208DFF980CC3E
:1038F70088F0EF60010E4E60C388F0ED2402B40437
:103907000050B9F582EB2402B4040050AF232345DD
:0639170082239038777353
:10391D00BB010689828A83E0225002E722BBFE02A8
:09392D00E32289828A83E49322DB
:10393600BB010CE58229F582E5833AF583E0225046
:1039460006E92582F8E622BBFE06E92582F8E22290
:0D395600E58229F582E5833AF583E49322AA
:10396300BB010FF8E58229F582E5833AF583E02868
:10397300F0225009C58229F8E58226F622BBFE090A
:10398300C58229F8E22582F222F8EA2583F583E944
:0339930093282254
:10399600BB010689828A83F0225002F722BBFE0110
:0239A600F3220A
:1039A800F8BB010DE58229F582E5833AF583E8F055
:1039B800225006E92582C8F622BBFE05E92582C801
:0239C800F222E9
:1039CA00EF8DF0A4A8F0CF8CF0A428CE8DF0A42E11
:0239DA00FE22CB
:1039DC00BC000BBE0029EF8DF084FFADF022E4CCCF
:1039EC00F875F008EF2FFFEE33FEEC33FCEE9DEC98
:1039FC00984005FCEE9DFE0FD5F0E9E4CEFD22EDDE
:103A0C00F8F5F0EE8420D21CFEADF075F008EF2F27
:103A1C00FFED33FD4007985006D5F0F222C398FD18
:053A2C000FD5F0EA22B5
:103A3100C2D5EC30E709B2D5E4C39DFDE49CFCEEB0
:103A410030E715B2D5E4C39FFFE49EFE1239DCC313
:103A5100E49DFDE49CFC80031239DC30D507C3E40E
:063A61009FFFE49EFE221F
:103A6700C5F0F8A3E028F0C5F0F8E58215827002EA
:063A77001583E038F02287
:103A7D00BB010A89828A83E0F5F0A3E02250068714
:103A8D00F009E71922BBFE07E3F5F009E3192289D6
:0B3A9D00828A83E493F5F07401932209
:103AA800BB0110E58229F582E5833AF583E0F5F05C
:103AB800A3E0225009E92582F886F008E622BBFE39
:103AC8000AE92582F8E2F5F008E222E5832AF5837F
:083AD800E993F5F0A3E9932244
:103AE000BB010A89828A83F0E5F0A3F0225006F731
:0F3AF00009A7F01922BBFE06F3E5F009F319222E
:103AFF00F8BB0111E58229F582E5833AF583E8F0F9
:103B0F00E5F0A3F0225009E92582C8F608A6F022B5
:0D3B1F00BBFE09E92582C8F2E5F008F2229C
:103B2C00E88FF0A4CC8BF0A42CFCE98EF0A42CFC38
:103B3C008AF0EDA42CFCEA8EF0A4CDA8F08BF0A4B6
:103B4C002DCC3825F0FDE98FF0A42CCD35F0FCEB15
:103B5C008EF0A4FEA9F0EB8FF0A4CFC5F02ECD39DA
:0F3B6C00FEE43CFCEAA42DCE35F0FDE43CFC2247
:103B7B00BB010789828A83023BB95005E9F8023BF6
:0A3B8B00F1BBFE05E9F8023BFD2244
:103B9500BB010DE58229F582E5833AF583023BB940
:103BA5005007E92582F8023BF1BBFE07E92582F8BB
:043BB500023BFD22B0
:0C3BB900ECF0A3EDF0A3EEF0A3EFF0227F
:103BC500EF4E6012EF60010EEDBB010B89828A8317
:103BD500F0A3DFFCDEFA2289F05007F709DFFCA924
:0C3BE500F022BBFEFCF309DFFCA9F0227B
:1041B900024036E493A3F8E493A34003F68001F2A6
:1041C90008DFF48029E493A3F85407240CC8C33307
:1041D900C4540F4420C8834004F456800146F6DFD6
:1041E900E4800B0102040810204080902765E47EDA
:1041F900019360BCA3FF543F30E509541FFEE493CB
:10420900A360010ECF54C025E060A840B8E493A391
:10421900FAE493A3F8E493A3C8C582C8CAC583CABC
:10422900F0A3C8C582C8CAC583CADFE9DEE780BE74
:0138260000A1
:0C3BF100ECF608EDF608EEF608EFF62200
:0C3BFD00ECF208EDF208EEF208EFF22204
:00000001FF
